S0100000536D6172744875732E73726563DD
S1130000E9C0000006C1000004C1000002C10000F4
S113001000C10000FEC00000FCC00000FAC00000E7
S1130020F8C00000BEC10000F4C00000F2C000002F
S1130030F0C00000EEC00000ECC00000EAC0000008
S1130040E8C00000E6C00000E4C00000E2C0000018
S1130050E0C00000DEC00000DCC00000DAC0000028
S1130060D8C00000D6C00000D4C00000D2C0000038
S1130070D0C00000CEC00000CCC00000CAC0000048
S1130080C8C00000C6C00000C4C00000C2C0000058
S1130090C0C00000BEC00000BCC00000BAC0000068
S11300A0B8C00000B6C00000B4C00000B2C0000078
S11300B0B0C00000AEC00000ACC00000AAC0000088
S11300C0A8C00000A6C00000A4C00000A2C0000098
S11300D0A0C000009EC000009CC000009AC00000A8
S11300E098C000008301B301B301B3018F01B301D0
S11300F09B01A701B301B301B301B301B301B30180
S1130100B301B301B301B301B301B301B301B3014B
S1130110B301B301B301B301B301B301B301B3013B
S1130120B301B301B301B301B301B301B301B3012B
S1130130B301B301B301B301B301B301B301B3011B
S1130140B301B301B301B301B301B301B301B3010B
S1130150B301B301B301B301B301B301B301B301FB
S1130160B301B3018601B301B301B3019201B30139
S11301709E01AA01B301B301B301B301B301B301F9
S1130180B301B301B301B301B301B301B301B301CB
S1130190B301B301B301B301B301B301B301B301BB
S11301A0B301B3018901B301B301B3019501B301F3
S11301B0A101AD01B301B301B301B301B301B301B3
S11301C0B301B3018C01B301B301B3019801B301CD
S11301D0A401B00111241FBECFEFD1E2DEBFCDBF19
S11301E000E00CBF12E0A0E0B2E0E6E8FAE000E0D4
S11301F00BBF02C007900D92A830B107D9F722E0D7
S1130200A8E0B2E001C01D92AE30B207E1F73FD1E1
S113021038C4F6CECF93DF931F92CDB7DEB788E014
S113022091E0FC018081807F89838091000290911C
S1130230010282309105A9F0833091051CF40197E5
S113024039F02AC083309105A9F00497E1F024C065
S113025089818760898388E091E02981FC0120837A
S11302601BC089818B60898388E091E02981FC012E
S1130270208312C089818D60898388E091E029817F
S1130280FC01208309C089818E60898388E091E024
S11302902981FC01208300008091000290910102D9
S11302A00196909301028093000280910002909144
S11302B00102059734F081E090E09093010280936D
S11302C0000200000F90DF91CF910895CF93DF9348
S11302D01F921F92CDB7DEB78A838A81882F90E060
S11302E0092E000CAA0BBB0B47E750E027E730E0D0
S11302F0841B950B28173907B0F1FC018827EE58A9
S1130300FF4F8F4FA1C381E3898330C084E3898386
S11303102DC087E389832AC08AE2898327C082E3C8
S1130320898324C085E3898321C088E389831EC02F
S113033080E389831BC083E3898318C086E38983B0
S113034015C089E3898312C083E289830FC081E4E5
S113035089830CC082E4898309C083E4898306C04D
S113036084E4898303C08EE28983000089810F902D
S11303700F90DF91CF910895CF93DF931F92CDB764
S1130380DEB786E091E0FC01808189838981803F2A
S113039018F489819BDF01C08EE20F90DF91CF9129
S11303A008951F920F9200905F000F921124009005
S11303B05B000F922F933F938F939F93EF93FF9341
S11303C0CF93DF93CDB7DEB785E290E025E230E04E
S11303D0F90120812068FC0120830000DF91CF9186
S11303E0FF91EF919F918F913F912F910F900092E8
S11303F05B000F9000925F000F901F901895CF93B1
S1130400DF93CDB7DEB787E091E027E031E0F90173
S113041020812F60FC01208388E091E028E031E016
S1130420F9012081206FFC01208384E290E024E222
S113043030E0F9012081206AFC01208381E091E011
S113044021E031E0F90120812063FC012083C6D141
S11304500000DF91CF910895CF93DF93CDB7DEB73E
S113046083E290E0FC018081882F90E080749927DA
S1130470892B49F485E290E025E230E0F9012081FE
S11304802F77FC0120830000DF91CF910895CF9353
S1130490DF931F92CDB7DEB7B2DF88E890E024EF98
S11304A031E0FC013183208388E690E028E630E0E7
S11304B0F90120812160FC0120838BE690E02BE68A
S11304C030E0F90120812064FC0120837894A2DECD
S11304D053DF898389818E3211F08981DCD0BCDFBE
S11304E0F6CFCF93DF93CDB7DEB744E050E060E0C2
S11304F070E08AE092E0B0D21092090210920802F1
S11305000000DF91CF910895CF93DF93CDB7DEB78D
S11305102E970FB6F894DEBF0FBECDBF82E091E0F8
S113052022E031E0F90120812062FC01208388E887
S113053090E028E037E0FC013183208380E090E004
S1130540AAEFB4E489839A83AB83BC8320E030E0D0
S11305504AE755E469817A818B819C81EAD1DC0187
S1130560CB018D839E83AF83B88720E030E040E8E1
S11305705FE36D817E818F8198855AD188232CF425
S113058081E090E09A8789873BC020E03FEF4FE706
S113059057E46D817E818F819885C7D118163CF50B
S11305A020E030E040E251E469817A818B819C81D2
S11305B0C0D1DC01CB01BC01CD013ED1DC01CB01BA
S11305C09A8789870FC080E991E09C878B878B8508
S11305D09C850197F1F79C878B8789859A8501977C
S11305E09A87898789859A85892B69F713C06D81D4
S11305F07E818F81988520D1DC01CB019A87898700
S113060089859A859E878D878D859E850197F1F7CB
S11306109E878D8788E890E024EF31E0FC013183E8
S113062020835FDF00002E960FB6F894DEBF0FBE66
S1130630CDBFDF91CF910895CF93DF93CDB7DEB7D0
S113064082E091E022E031E0F90120812061FC01A7
S1130650208347DF0000DF91CF910895CF93DF938C
S11306601F92CDB7DEB78983809108029091090269
S1130670865F9D4F2981FC0120838091080290911F
S113068009020196909309028093080200000F90DA
S1130690DF91CF910895CF93DF93CDB7DEB72F9736
S11306A00FB6F894DEBF0FBECDBF8F878F858A3219
S11306B019F08F85D3DF01C014DF80910802909177
S11306C00902049761F444E050E06AE072E082E0D9
S11306D092E0C9D1892B11F417DF01C0ADDF80E0AE
S11306E090E0A8E4B3E489839A83AB83BC8320E0DD
S11306F030E04AE755E469817A818B819C8119D184
S1130700DC01CB018D839E83AF83B88720E030E08A
S113071040E85FE36D817E818F81988589D088234D
S11307202CF481E090E09A8789873BC020E03FEF7A
S11307304FE757E46D817E818F819885F6D0181636
S11307403CF520E030E040E251E469817A818B811C
S11307509C81EFD0DC01CB01BC01CD016DD0DC016B
S1130760CB019A8789870FC080E991E09C878B87AA
S11307708B859C850197F1F79C878B8789859A8562
S113078001979A87898789859A85892B69F713C088
S11307906D817E818F8198854FD0DC01CB019A8752
S11307A0898789859A859E878D878D859E85019702
S11307B0F1F79E878D8782E091E022E031E0F90134
S11307C020812F7CFC01208300002F960FB6F89423
S11307D0DEBF0FBECDBFDF91CF910895CF93DF93DE
S11307E0CDB7DEB780E890E020E830E0F901208161
S11307F02068FC01208381E890E021E830E0F901E1
S113080020812061FC01208381E890E021E830E030
S1130810F90120812260FC01208386E890E020E237
S11308203EE4FC01318320830000DF91CF910895E1
S11308302FD008F481E0089557D088F09F5790F0A6
S1130840B92F9927B751A0F0D1F0660F771F881FF1
S1130850991F1AF0BA95C9F712C0B13081F05ED071
S1130860B1E008955BC0672F782F8827B85F39F00F
S1130870B93FCCF3869577956795B395D9F73EF450
S113088090958095709561957F4F8F4F9F4F0895F8
S1130890990F0008550FAA0BE0E8FEEF161617068D
S11308A0E807F907C0F012161306E407F50798F0F5
S11308B0621B730B840B950B39F40A2661F0232B0E
S11308C0242B252B21F408950A2609F4A140A6958A
S11308D08FEF811D811D089557FD9058440F551FBA
S11308E059F05F3F71F04795880F97FB991F61F0AE
S11308F09F3F79F087950895121613061406551F25
S1130900F2CF4695F1DF08C0161617061806991F90
S1130910F1CF86957105610508940895E894BB2785
S113092066277727CB0197F90895B2DF08F48FEF94
S113093008950BD078C069D028F06ED018F09523B4
S113094009F05AC05FC01124EACFC6DFA0F3959F17
S1130950D1F3950F50E0551F629FF001729FBB27A2
S1130960F00DB11D639FAA27F00DB11DAA1F649F4E
S11309706627B00DA11D661F829F2227B00DA11D01
S1130980621F739FB00DA11D621F839FA00D611D87
S1130990221F749F3327A00D611D231F849F600DA8
S11309A0211D822F762F6A2F11249F5750408AF0E1
S11309B0E1F088234AF0EE0FFF1FBB1F661F771F6D
S11309C0881F91505040A9F79E3F510570F014C004
S11309D0A6CF5F3FECF3983EDCF386957795679559
S11309E0B795F795E7959F5FC1F7FE2B880F911D8B
S11309F09695879597F9089597F99F6780E870E031
S1130A0060E008959FEF80EC089500240A94161680
S1130A10170618060906089500240A9412161306E8
S1130A20140605060895092E0394000C11F4882376
S1130A3052F0BB0F40F4BF2B11F460FF04C06F5F92
S1130A407F4F8F4F9F4F0895EE0FFF1F881F8BBF5F
S1130A500790F691E02D1994DC0101C06D9341508B
S1130A605040E0F70895FB01DC014150504030F064
S1130A708D910190801919F40020B9F7881B990B06
S1090A800895F894FFCF75
S10B0A86010034343434000093
S9030000FC
